{
  "_format": "hh-sol-artifact-1",
  "contractName": "UserRegistry",
  "sourceName": "contracts/Token.sol",
  "abi": [
    {
      "anonymous": false,
      "inputs": [
        {
          "indexed": true,
          "internalType": "address",
          "name": "walletAddress",
          "type": "address"
        },
        {
          "indexed": false,
          "internalType": "string",
          "name": "cedula",
          "type": "string"
        },
        {
          "indexed": false,
          "internalType": "string",
          "name": "nombre",
          "type": "string"
        }
      ],
      "name": "UserRegistered",
      "type": "event"
    },
    {
      "inputs": [
        {
          "internalType": "address",
          "name": "_userAddress",
          "type": "address"
        }
      ],
      "name": "getUser",
      "outputs": [
        {
          "internalType": "string",
          "name": "",
          "type": "string"
        },
        {
          "internalType": "string",
          "name": "",
          "type": "string"
        },
        {
          "internalType": "address",
          "name": "",
          "type": "address"
        }
      ],
      "stateMutability": "view",
      "type": "function"
    },
    {
      "inputs": [
        {
          "internalType": "address",
          "name": "_userAddress",
          "type": "address"
        }
      ],
      "name": "isUserRegistered",
      "outputs": [
        {
          "internalType": "bool",
          "name": "",
          "type": "bool"
        }
      ],
      "stateMutability": "view",
      "type": "function"
    },
    {
      "inputs": [
        {
          "internalType": "string",
          "name": "_cedula",
          "type": "string"
        },
        {
          "internalType": "string",
          "name": "_nombre",
          "type": "string"
        }
      ],
      "name": "registerUser",
      "outputs": [],
      "stateMutability": "nonpayable",
      "type": "function"
    }
  ],
  "bytecode": "0x6080604052348015600f57600080fd5b50610cf18061001f6000396000f3fe608060405234801561001057600080fd5b50600436106100415760003560e01c8063163f7522146100465780631d2e4afd146100765780636f77926b14610092575b600080fd5b610060600480360381019061005b91906105d0565b6100c4565b60405161006d9190610618565b60405180910390f35b610090600480360381019061008b9190610779565b61011d565b005b6100ac60048036038101906100a791906105d0565b6102e6565b6040516100bb9392919061087f565b60405180910390f35b6000806000808473ffffffffffffffffffffffffffffffffffffffff1673ffffffffffffffffffffffffffffffffffffffff1681526020019081526020016000206000018054610113906108f3565b9050119050919050565b60008060003373ffffffffffffffffffffffffffffffffffffffff1673ffffffffffffffffffffffffffffffffffffffff168152602001908152602001600020600001805461016b906108f3565b9050146101ad576040517f08c379a00000000000000000000000000000000000000000000000000000000081526004016101a490610970565b60405180910390fd5b60405180606001604052808381526020018281526020013373ffffffffffffffffffffffffffffffffffffffff168152506000803373ffffffffffffffffffffffffffffffffffffffff1673ffffffffffffffffffffffffffffffffffffffff16815260200190815260200160002060008201518160000190816102319190610b46565b5060208201518160010190816102479190610b46565b5060408201518160020160006101000a81548173ffffffffffffffffffffffffffffffffffffffff021916908373ffffffffffffffffffffffffffffffffffffffff1602179055509050503373ffffffffffffffffffffffffffffffffffffffff167f92822564bab8864c3a47b34e8d23fbce5c46234eb5da261f94087b995ac0f33b83836040516102da929190610c18565b60405180910390a25050565b6060806000806000808673ffffffffffffffffffffffffffffffffffffffff1673ffffffffffffffffffffffffffffffffffffffff1681526020019081526020016000206000018054610338906108f3565b90501161037a576040517f08c379a000000000000000000000000000000000000000000000000000000000815260040161037190610c9b565b60405180910390fd5b60008060008673ffffffffffffffffffffffffffffffffffffffff1673ffffffffffffffffffffffffffffffffffffffff1681526020019081526020016000206040518060600160405290816000820180546103d5906108f3565b80601f0160208091040260200160405190810160405280929190818152602001828054610401906108f3565b801561044e5780601f106104235761010080835404028352916020019161044e565b820191906000526020600020905b81548152906001019060200180831161043157829003601f168201915b50505050508152602001600182018054610467906108f3565b80601f0160208091040260200160405190810160405280929190818152602001828054610493906108f3565b80156104e05780601f106104b5576101008083540402835291602001916104e0565b820191906000526020600020905b8154815290600101906020018083116104c357829003601f168201915b505050505081526020016002820160009054906101000a900473ffffffffffffffffffffffffffffffffffffffff1673ffffffffffffffffffffffffffffffffffffffff1673ffffffffffffffffffffffffffffffffffffffff16815250509050806000015181602001518260400151935093509350509193909250565b6000604051905090565b600080fd5b600080fd5b600073ffffffffffffffffffffffffffffffffffffffff82169050919050565b600061059d82610572565b9050919050565b6105ad81610592565b81146105b857600080fd5b50565b6000813590506105ca816105a4565b92915050565b6000602082840312156105e6576105e5610568565b5b60006105f4848285016105bb565b91505092915050565b60008115159050919050565b610612816105fd565b82525050565b600060208201905061062d6000830184610609565b92915050565b600080fd5b600080fd5b6000601f19601f8301169050919050565b7f4e487b7100000000000000000000000000000000000000000000000000000000600052604160045260246000fd5b6106868261063d565b810181811067ffffffffffffffff821117156106a5576106a461064e565b5b80604052505050565b60006106b861055e565b90506106c4828261067d565b919050565b600067ffffffffffffffff8211156106e4576106e361064e565b5b6106ed8261063d565b9050602081019050919050565b82818337600083830152505050565b600061071c610717846106c9565b6106ae565b90508281526020810184848401111561073857610737610638565b5b6107438482856106fa565b509392505050565b600082601f8301126107605761075f610633565b5b8135610770848260208601610709565b91505092915050565b600080604083850312156107905761078f610568565b5b600083013567ffffffffffffffff8111156107ae576107ad61056d565b5b6107ba8582860161074b565b925050602083013567ffffffffffffffff8111156107db576107da61056d565b5b6107e78582860161074b565b9150509250929050565b600081519050919050565b600082825260208201905092915050565b60005b8381101561082b578082015181840152602081019050610810565b60008484015250505050565b6000610842826107f1565b61084c81856107fc565b935061085c81856020860161080d565b6108658161063d565b840191505092915050565b61087981610592565b82525050565b600060608201905081810360008301526108998186610837565b905081810360208301526108ad8185610837565b90506108bc6040830184610870565b949350505050565b7f4e487b7100000000000000000000000000000000000000000000000000000000600052602260045260246000fd5b6000600282049050600182168061090b57607f821691505b60208210810361091e5761091d6108c4565b5b50919050565b7f5573657220616c726561647920726567697374657265642e0000000000000000600082015250565b600061095a6018836107fc565b915061096582610924565b602082019050919050565b600060208201905081810360008301526109898161094d565b9050919050565b60008190508160005260206000209050919050565b60006020601f8301049050919050565b600082821b905092915050565b6000600883026109f27fffffffffffffffffffffffffffffffffffffffffffffffffffffffffffffffff826109b5565b6109fc86836109b5565b95508019841693508086168417925050509392505050565b6000819050919050565b6000819050919050565b6000610a43610a3e610a3984610a14565b610a1e565b610a14565b9050919050565b6000819050919050565b610a5d83610a28565b610a71610a6982610a4a565b8484546109c2565b825550505050565b600090565b610a86610a79565b610a91818484610a54565b505050565b5b81811015610ab557610aaa600082610a7e565b600181019050610a97565b5050565b601f821115610afa57610acb81610990565b610ad4846109a5565b81016020851015610ae3578190505b610af7610aef856109a5565b830182610a96565b50505b505050565b600082821c905092915050565b6000610b1d60001984600802610aff565b1980831691505092915050565b6000610b368383610b0c565b9150826002028217905092915050565b610b4f826107f1565b67ffffffffffffffff811115610b6857610b6761064e565b5b610b7282546108f3565b610b7d828285610ab9565b600060209050601f831160018114610bb05760008415610b9e578287015190505b610ba88582610b2a565b865550610c10565b601f198416610bbe86610990565b60005b82811015610be657848901518255600182019150602085019450602081019050610bc1565b86831015610c035784890151610bff601f891682610b0c565b8355505b6001600288020188555050505b505050505050565b60006040820190508181036000830152610c328185610837565b90508181036020830152610c468184610837565b90509392505050565b7f55736572206e6f7420666f756e642e0000000000000000000000000000000000600082015250565b6000610c85600f836107fc565b9150610c9082610c4f565b602082019050919050565b60006020820190508181036000830152610cb481610c78565b905091905056fea2646970667358221220623c544380cf5ae5f95a512f0d8d5b9b27ff3c3ca7c9ae4aae140eb8dc17f9a564736f6c634300081b0033",
  "linkReferences": {},
  "deployedLinkReferences": {}
}